[
  [
    "version",
    3,
    "from",
    [
      {
        "address": "mUewrPVYccx5FJUNbtCeTBtwFMy6Zh7YoJ",
        "txId": "a477af6b2667c29670467e4e0728b685ee07b240235771862318e29ddbe58458",
        "outputIndex": 0,
        "script": "OP_DUP OP_HASH160 20 0x88d9931ea73d60eaf7e5671efc0552b912911f2a OP_EQUALVERIFY OP_CHECKSIG",
        "satoshis": 1020000
      }
    ],
    "to",
    ["mT8Yq8TtEqdQoABQpjrcCCqPJepizAbNMW", 1010000],
    "sign",
    ["cSBnVM4xvxarwGQuAfQFwqDg9k5tErHUHzgWsEfD4zdwUasvqRVY"],
    "serialize",
    "03000000015884e5db9de218238671572340b207ee85b628074e7e467096c267266baf77a4000000006b483045022100cfe1bd9de5f9359e3b4dbd28e257f3dfbc8c072a95338db9f81b7e8c5900129602206847081d4d959bd50470a96357820df7ce7562bb3438e1c94967f14f58dda36001210223078d2942df62c45621d209fab84ea9a7a23346201b7727b9b45a29c4e76f5effffffff0150690f00000000001976a9147821c0a3768aa9d1a37e16cf76002aef5373f1a888ac00000000"
  ],
  [
    "version",
    3,
    "from",
    [
      {
        "txid": "e42447187db5a29d6db161661e4bc66d61c3e499690fe5ea47f87b79ca573986",
        "vout": 1,
        "address": "mGqbK4aeHVzA1wEZWTTuiYm7kpbYBVd2E9",
        "scriptPubKey": "76a914073b7eae2823efa349e3b9155b8a735526463a0f88ac",
        "amount": 0.0108
      }
    ],
    "to",
    ["mNpBfpndgN42fvwg2G8sRcPY4WeSjrd9E1", 500000],
    "to",
    ["mXk1uqNwsBxj9KCyHHBxZjYHYU1yjqPP4W", 570000],
    "sign",
    ["cSQUuwwJBAg6tYQhzqqLWW115D1s5KFZDyhCF2ffrnukZxMK6rNZ"],
    "serialize",
    "0300000001863957ca797bf847eae50f6999e4c3616dc64b1e6661b16d9da2b57d184724e4010000006a4730440220729f455612cbe875165ee3d08394b66f5086f56f0d892488cca99470c2a00d8f02203241c561cb8db2e44fffc4f639eda8c9bcb9055fea4be110212833d76af798bf0121039dd446bbc85db6917f39c0b4c295b0f8cce76d1926fa76d7b84e3f7ff1c5eec5ffffffff0220a10700000000001976a91448c819246ae5645ceecd41fbe1aa6202a0a9b5ca88ac90b20800000000001976a914aab76ba4877d696590d94ea3e02948b55294815188ac00000000"
  ],
  [
    "version",
    3,
    "from",
    [
      [
        {
          "txid": "a9db84566e0fc9351e86337d2828ab281b25ddc06fab798f6d4b5baef48c02b3",
          "vout": 0,
          "address": "mNpBfpndgN42fvwg2G8sRcPY4WeSjrd9E1",
          "account": "",
          "scriptPubKey": "76a91448c819246ae5645ceecd41fbe1aa6202a0a9b5ca88ac",
          "satoshis": 500000
        }
      ],
      [
        {
          "txid": "a9db84566e0fc9351e86337d2828ab281b25ddc06fab798f6d4b5baef48c02b3",
          "vout": 1,
          "address": "mXk1uqNwsBxj9KCyHHBxZjYHYU1yjqPP4W",
          "account": "",
          "scriptPubKey": "76a914aab76ba4877d696590d94ea3e02948b55294815188ac",
          "satoshis": 570000
        }
      ]
    ],
    "to",
    ["mVeAd6DncYVWv1suwULkfiP9YmFtCtnyga", 1060000],
    "sign",
    [
      [
        "cPGbA2C54ZZ1sw4dc2ckBE1WqkdrNSbEV8Tkjhi2p1J15oErdgP2",
        "cSpyve5bXAuyHrNeV9MjTdFz3HLw739yUjjUAUSMe3ppf2qzj2hw"
      ]
    ],
    "serialize",
    "0300000002b3028cf4ae5b4b6d8f79ab6fc0dd251b28ab28287d33861e35c90f6e5684dba9000000006b483045022100d4489732e68f3530ef92aa36b4bfa630d413a8cae6bf034a6fec298c9e7b68ec02207f6c7b7b98ac324c1231abafe5e19f8179483c39597d00dfb1f133fecaddb90f0121030253c73236acf5ea9085d408220141197f6094de07426bd0d32c7a543614fdd7ffffffffb3028cf4ae5b4b6d8f79ab6fc0dd251b28ab28287d33861e35c90f6e5684dba9010000006a4730440220010b83737506b6df4bb38a1e9361300a43492b57b90b99bcbce6e6b2bb69d9240220753b34b97a4ea9d7f5d9c05303874314ff92bb6bbdb413e29d2eccf4ea03bc8d012102977a001a0a7bbfd1f8a647c7d46e13e8f6920635b328390b43b3303977101149ffffffff01a02c1000000000001976a91493abf1e9e4a20c125b93f93ee39efc16b6e4bc4688ac00000000"
  ],
  [
    "version",
    3,
    "from",
    [
      {
        "address": "mGxr9cMPctCGYmYKEDvfBoWfJWHnJkFe2e",
        "txid": "f50e13cecda9a438ebd7df213a2899e42b2461a18d4630ee773d26b4f2688bdc",
        "vout": 1,
        "scriptPubKey": "76a914089acaba6af8b2b4fb4bed3b747ab1e4e60b496588ac",
        "amount": 0.01
      }
    ],
    "to",
    ["meX7YTWf9YouifvmvgxKE2fRMRS2ayaFT5", 990000],
    "sign",
    ["cPwWtDztEgRCMCU8pMQp4HgphvyadrAsYBrCjXUZuDSmnZkyoyNF"],
    "serialize",
    "0300000001dc8b68f2b4263d77ee30468da161242be499283a21dfd7eb38a4a9cdce130ef5010000006a4730440220269922cf4d63fe98bffa285843fc33ce79042206c2249c2ee7b6fb242e9ff82602203a20e1e943388d29fb1496655a2e515aca033965fc0b57f8441dfda6e3e9fe52012103e26b47e7c0d8946954bf9dd4bc7f9e415437eb98271d05f69e78cef8fc6c9a54ffffffff01301b0f00000000001976a914f50f9826ef186074c6fe206cca6b71472ff07ba888ac00000000"
  ],
  [
    "version",
    1,
    "from",
    [
      {
        "address": "7ZWZu4k2reHv1KF91AJuVu1Y5CLjpu3VA6",
        "txid": "073281b2cc94e879aaf30ea2e92947d9827b270015849d3a5b96a89ee15bfa66",
        "vout": 0,
        "ts": 1418877950,
        "scriptPubKey": "a9144de752833233fe69a20064f29b2ca0f6399c8af387",
        "amount": 0.00328512,
        "confirmationsFromCache": false
      },
      [
        "03411e021210a933c247ea9c8dad4bbead281597d508ad84e899de13e4ce98b4ba",
        "03bda2c3cc11a391b36e3d695b03ab42b96fe04086b2349056108d858983e60dab",
        "03c16e6ecf4e02bf9db23d3247ab92db8881f0866133ffb530c3470f6d8dea7330"
      ],
      2
    ],
    "to",
    ["7cJdJ3CvjDHFWWeFLVGBmAx8reh7QQ69aX", 320299],
    "sign",
    [
      [
        "XJ2vqRv33Gc6ENwUQ97iAc9QWvfPr3mM5CSbFaWfdwK3qnRHMcWk",
        "XHdzZw6k3XJ3aWdvxgGQtdCJdEndXrPBXcJ9nysh4tpjCxgs8Yjs"
      ]
    ],
    "serialize",
    "010000000166fa5be19ea8965b3a9d841500277b82d94729e9a20ef3aa79e894ccb281320700000000fdfd000048304502210097098e4537907162fc6814b94db1da26294403a659a78347dc3743a70148c5df02207b41c779240edb1b06de42f90e3874a54836a2073ef5f04236c31d6b74b744d20147304402201047c411f114f18eb7e7dd53e3f4a4cd11501b453ad4e0e71a72d7da1227db3802204bc926cfae8d35cf3aedc6955951e49341f49a375c69ff04851b1cbf477b0894014c69522103411e021210a933c247ea9c8dad4bbead281597d508ad84e899de13e4ce98b4ba2103bda2c3cc11a391b36e3d695b03ab42b96fe04086b2349056108d858983e60dab2103c16e6ecf4e02bf9db23d3247ab92db8881f0866133ffb530c3470f6d8dea733053aeffffffff012be304000000000017a9146c8d8b04c6a1e664b1ec20ec932760760c97688e8700000000"
  ],
  [
    "version",
    1,
    "from",
    [
      {
        "address": "7cJdJ3CvjDHFWWeFLVGBmAx8reh7QQ69aX",
        "txid": "afbf98ca4a43db8915d75184b5204fbe71d916482adfe85cb0ed3635764fc220",
        "vout": 0,
        "ts": 1418878108,
        "scriptPubKey": "a9146c8d8b04c6a1e664b1ec20ec932760760c97688e87",
        "amount": 0.00318512,
        "confirmationsFromCache": false
      },
      [
        "020483ebb834d91d494a3b649cf0e8f5c9c4fcec5f194ab94341cc99bb440007f2",
        "0271ebaeef1c2bf0c1a4772d1391eab03e4d96a6e9b48551ab4e4b0d2983eb452b",
        "03a659828aabe443e2dedabb1db5a22335c5ace5b5b7126998a288d63c99516dd8"
      ],
      2
    ],
    "from",
    [
      {
        "address": "7cJdJ3CvjDHFWWeFLVGBmAx8reh7QQ69aX",
        "txid": "dc2e197ab72f71912c39bc23a42d823a3aa8d469fe65eb591c086e60d14c64a0",
        "vout": 0,
        "ts": 1418878014,
        "scriptPubKey": "a9146c8d8b04c6a1e664b1ec20ec932760760c97688e87",
        "amount": 0.00300299,
        "confirmationsFromCache": false
      },
      [
        "020483ebb834d91d494a3b649cf0e8f5c9c4fcec5f194ab94341cc99bb440007f2",
        "0271ebaeef1c2bf0c1a4772d1391eab03e4d96a6e9b48551ab4e4b0d2983eb452b",
        "03a659828aabe443e2dedabb1db5a22335c5ace5b5b7126998a288d63c99516dd8"
      ],
      2
    ],
    "to",
    ["7ZWZu4k2reHv1KF91AJuVu1Y5CLjpu3VA6", 150000],
    "to",
    ["7ZWZu4k2reHv1KF91AJuVu1Y5CLjpu3VA6", 160000],
    "change",
    ["7cJdJ3CvjDHFWWeFLVGBmAx8reh7QQ69aX"],
    "sign",
    ["XGY5DLkLMJGRRQqu39GvgLitoHV8hKZEHKyRfD4LFEa94uvYGvt2"],
    "sign",
    ["XJoAwsbx9EqCp7PTMAWbhQsjFHDuQEaEJwcNS96F3ZKuPM4y8ntu"],
    "serialize",
    "010000000220c24f763536edb05ce8df2a4816d971be4f20b58451d71589db434aca98bfaf00000000fdfd000048304502210088ddd40f1b58603b4ee75d21226528426ee4d9c9e88b960bf80081dcdf1a9d5a02202f368ce8bd9c66b9ec17f92569ae5dca2ef541e34bf632f8487009a58a1d1925014730440220704d7b99bb5333dd6a3e8b09fc5fa4fb9c891ce03cab47e902dfce5aeaf8724a0220402e08c44d088e4e5448574c2c10d7bc36d7ba1eb5de61dccb08786628738a19014c695221020483ebb834d91d494a3b649cf0e8f5c9c4fcec5f194ab94341cc99bb440007f2210271ebaeef1c2bf0c1a4772d1391eab03e4d96a6e9b48551ab4e4b0d2983eb452b2103a659828aabe443e2dedabb1db5a22335c5ace5b5b7126998a288d63c99516dd853aeffffffffa0644cd1606e081c59eb65fe69d4a83a3a822da423bc392c91712fb77a192edc00000000fdfd00004830450221008610924a2e48fd0f0be9b8dd5017f1d478be6101ee8ea69e0cdca6bcfbfd4c21022012da689506940bb20fcf9fe590d7687180b49904b82525c331bfe1965965c2f601473044022062b1f55d1afaaa94c2f27eec3bd5ea20f8a19afe09387655b7c9f7e03749f690022077904d8490ef149b8a097aa23ebc384cabe7c9b4f6b137e672793e176a1cf684014c695221020483ebb834d91d494a3b649cf0e8f5c9c4fcec5f194ab94341cc99bb440007f2210271ebaeef1c2bf0c1a4772d1391eab03e4d96a6e9b48551ab4e4b0d2983eb452b2103a659828aabe443e2dedabb1db5a22335c5ace5b5b7126998a288d63c99516dd853aeffffffff03f04902000000000017a9144de752833233fe69a20064f29b2ca0f6399c8af387007102000000000017a9144de752833233fe69a20064f29b2ca0f6399c8af38763b204000000000017a9146c8d8b04c6a1e664b1ec20ec932760760c97688e8700000000"
  ]
]
